:020000040800F2
:10000000B80500200101000817230008651F00083B
:10001000152300085D0700081929000800000000EA
:10002000000000000000000000000000E9250008BA
:100030005F0700080000000019230008EB250008F6
:100040001B0100081B0100081B0100085D240008BB
:100050001B0100081B0100081B0100081B01000810
:100060001B0100081B0100081B0100081B01000800
:100070001B0100081B0100081B0100081B010008F0
:100080001B0100081B0100081B0100081B010008E0
:100090001B0100081B0100081B0100081B010008D0
:1000A0001B0100081B0100081B0100081B010008C0
:1000B0001B0100081B0100081B0100081B010008B0
:1000C0001B0100081B0100081B0100081B010008A0
:1000D0001B010008012900080D2900081B01000868
:1000E0001B0100081B0100081B010008DFF80CD0F1
:1000F00000F03AFA0048004749320008B8050020ED
:100100000648804706480047FEE7FEE7FEE7FEE7B1
:10011000FEE7FEE7FEE7FEE7FEE7FEE775260008DE
:10012000ED000008202A04DB203A21FA02F0002129
:10013000704721FA02F3D040C2F1200291400843F7
:1001400019467047D2B201E000F8012B491EFBD2DC
:1001500070470022F6E710B513460A4604461946D2
:10016000FFF7F0FF204610BD30B50B4601460020DA
:100170002022012409E021FA02F59D4205D303FA69
:1001800002F5491B04FA02F52844151EA2F10102EA
:10019000F1DC30BD2DE9F05F0546002092469B461C
:1001A00088460646814640241BE02846414647468D
:1001B0002246FFF7B7FF53465A46C01A914110D363
:1001C00011461846224600F0E1F92D1A67EB0108A6
:1001D0004F4622460120002100F0D8F917EB000914
:1001E0004E41201EA4F10104DFDC484631462A4678
:1001F0004346BDE8F09F2DE9FE4F804681EA0300AB
:10020000C00F0C46009021F0004123F00045B8EBF0
:100210000200A94105D24046214690461C460B46A5
:10022000024623F00040104347D0270DC7F30A00D1
:10023000C3F30A510290401A019040286BDAC3F3CD
:10024000130040F4801B0098924620B10023D2EBAB
:10025000030A63EB0B0B01985946C0F1400250466C
:1002600000F094F906460D4650465946019A00F0B2
:100270009CF910EB08006141002487EA115284EADE
:10028000E7731A4340D0009A62B3019A012A4FEAF9
:10029000075215DC001B61EB02014FF0004202EA3D
:1002A0000752CDE90042001C41F5801132462B4631
:1002B00000F09CF903B0BDE8F08F40462146F9E715
:1002C000001B61EB0201001C41F5801300185B412B
:1002D0002018A2F5001747EB030140EAD570B619C4
:1002E0006D4111E06D084FEA360645EAC0754FEAE8
:1002F0000752001B61EB0201001C41F58011490807
:100300004FEA30000019514132462B4603B0BDE898
:10031000F04F00F05CB90098012240000023D0EBC0
:10032000020263EBE073009821464FEAE074B8EBF9
:10033000000061EB0401E9E783F000435BE781F033
:10034000004158E72DE9FE4F81EA030404F0004420
:1003500021F0004100944FF0000B23F0004350EADD
:1003600001045ED052EA03045BD0C3F30A54C1F324
:100370000A552C44A4F2F3340194A0FB0254C1F3B7
:10038000130141F48011C3F3130343F4801301FB01
:10039000024400FB034E840A970A44EA815447EA68
:1003A0008357A4FB076802958D0A05FB07854FEA72
:1003B000932C04FB0C542705029D4FEA065847EA8C
:1003C0001637B5EB08056EEB070C870E920E47EA61
:1003D000811742EA8312A7FB0201B6EB0B0164EB23
:1003E00000042B0D43EA0C335E1844EB1C50DA4634
:1003F0005146E7FB0201C5F313044FEA0B3343EA0E
:1004000014534FEA0432019C43EA0603A4F10C049E
:100410000294009CCDE900B400F0E8F803B0BDE818
:10042000F08F00200146F9E72DE9F04D81EA030441
:1004300004F0004B21F0004514464FF0000A23F071
:10044000004150EA050220D054EA01021DD0C5F354
:100450000A570246C5F31303C1F31300C1F30A564A
:1004600040F4801543F48013A7EB0608101BD64612
:1004700008F2FD3873EB050002D308F1010801E032
:1004800092185B41B8F1000F03DA00200146BDE885
:10049000F08D00204FF48011064684460EE0171BB5
:1004A00073EB050705D3121B63EB050306434CEA08
:1004B000010C49084FEA300092185B4150EA0107ED
:1004C000EDD152EA030012D082EA040083EA05016A
:1004D000084305D0101BAB4106D20122002306E0E1
:1004E00000224FF0004302E06FF0010253101AEBBC
:1004F00006004CEB085110EB0A0041EB0B01BDE884
:10050000F04D00F064B8C1F30A52C1F3130140F298
:10051000FF3341F480119A4202DA0020014670470D
:1005200040F233439A42A2F2334202DC5242FFF7D6
:10053000F9BD00F02BB8000030B5041E71F10004C5
:1005400004DB4FF00044404264EB0101141E73F1E0
:10055000000405DB1C464FF00043524263EB0403EA
:10056000994208BF904230BD064C074D06E0E06856
:1005700040F0010394E8070098471034AC42F6D3EA
:10058000FFF7B8FD3433000854330008202A04DB99
:10059000203A00FA02F1002070479140C2F1200396
:1005A00020FA03F3194390407047202A06DBCB174B
:1005B000203A41FA02F043EAE07306E041FA02F31E
:1005C000D040C2F12002914008431946704710B54F
:1005D000141E73F1000408DA401C41F10001921866
:1005E0005B411A4301D120F0010010BD2DE9F04D0F
:1005F00092469B4611B1B1FA81F202E0B0FA80F264
:1006000020329046FFF7C2FF04460F4640EA0A0038
:1006100041EA0B0153465A46084313D0114653EAA8
:10062000010019D0C8F140025046FFF77BFD054696
:100630000E46504659464246FFF7A8FF084305D0EC
:10064000012004E020463946BDE8F08D0020054336
:1006500046EAE0762C4337430A986305E40AA0EBA8
:1006600008000022FD0A44EA47540A3002D500205F
:100670000146E9E7010510196941DDE9084500195E
:100680006941BDE8F04DA2E770B504460068816895
:10069000C943C90717D1816821F00101816000F0C9
:1006A00017FC05460AE000BF00F012FC401B0228C0
:1006B00004D920688068C043C00706D020688068DD
:1006C000C043C007F0D0002070BDA06A40F0100009
:1006D000A062E06A40F00100E062012070BD00000D
:1006E000F8B500260446009600688168C943C9072A
:1006F0002DD0816841F001018160164816490068DB
:10070000B0FBF1F000E0401E00900028FBD100F0AB
:10071000DFFB054616E000BF00F0DAFB401B0228B5
:1007200010D920688068C043C0070BD0A06A40F091
:100730001000A062E06A40F00100E06284F82460EA
:100740000120F8BD20688068C043C007E4D10020C4
:10075000F8BD00004400002040420F00FEE7704753
:1007600072B6FEE7F8B50024009490F824202546E0
:10077000012A12D0012280F824204A681F23072A68
:100780000DD20668776B521E02EB820293409F43A4
:100790000B6893401F43776319E00220F8BD066899
:1007A0000D2A0AD2376BD21F02EB820293409F437D
:1007B0000B6893401F43376309E0F76A0D3A02EB79
:1007C000820293409F430B6893401F43F7620A687D
:1007D000072306680A2A0AD3F7680A3A02EB42029C
:1007E00093409F438B6893401F43F76008E037694D
:1007F00002EB420293409F438B6893401F43376153
:100800000A68102A01D0112A20D1124B02689A429C
:1008100017D193681B0219D4936843F400039360C3
:100820000968102912D10C490C4A0968B1FBF2F190
:1008300001EB8101490000E0491E00910029FBD134
:1008400004E0816A41F020018162012480F8245093
:100850002046F8BD002401404400002040420F0023
:100860000068C06C704700002DE9F0414FF00007B0
:1008700004003D467ED0A06A002628B9E66284F8CE
:100880002460204600F07EF82046FFF7FDFEA16AB6
:10089000C90600D420B1A06A40F01000A06269E04F
:1008A000A16A21F4885141F00201A1626268E16904
:1008B000237B0A4347EA43010A43A1684FF4807748
:1008C000B94209D0012907D05FF0000194F814C0A3
:1008D000BCF1010F02D00AE03946F7E7F3B1A36A91
:1008E00043F02003A362E36A43F00103E362236859
:1008F000D3F804C02CF4694C4CEA010CC3F804C0D2
:1009000021688B68DFF870C003EA0C0313438B6027
:10091000A168B9420BD0012909D00CE0DFF85CC016
:10092000A3690CEB43330B4343F40061DFE7218AF7
:100930000D05A5F580152168CB6A23F470032B43C0
:10094000CB62216889680E4B1940914208D1E6625A
:10095000A16A21F0020141F00101A162BDE8F0812C
:10096000A06A20F0020040F01000A062E06A40F0AF
:100970000100E0620120F1E7FDF7E1FF00E0FFFF89
:10098000FE0E1FFF00B585B000210091019102917C
:10099000039100680E49884218D10E48816941F4DC
:1009A00000718161816901F400710491816941F0F4
:1009B000040181618069694600F00400049002200E
:1009C000009003200190044800F088F905B000BDB4
:1009D0000024014000100240000801402DE9F843C6
:1009E00000270D460446009700F072FA8046206802
:1009F0008168C90508D5A06A40F02000A06284F88B
:100A000024700120BDE8F8834168C90503D4C06A99
:100A100010F4700F2AD0022000F0F6FA3B49096862
:100A2000B1FBF0F62068036939490B424FEA6101D6
:100A30004FEAA1121FD1C3684FEA611C13EA0C0FE1
:100A400019D103690B4225D1C068104222D114206C
:100A500023E0681C0AD02DB100F03AFAA0EB0800A0
:100A6000A84203D920680068800725D5206800685F
:100A70008007EED52DE003690B4202D1C168114217
:100A800006D0026923490A4206D1C068084203D150
:100A9000542002E0292000E0FC204643009816E0A4
:100AA000681C11D02DB100F013FAA0EB0800A84289
:100AB0000AD90098B04207D2A06A40F00400A062B0
:100AC00084F8247003209DE70098401C0090B042F9
:100AD000E6D321686FF012000860A06A40F400704D
:100AE000A06220688068C0F3424007280CD1207BB8
:100AF00050B9A06A20F48070A062A06AC00403D438
:100B0000A06A40F00100A06200207BE744000020C2
:100B1000244992244992240070B5044690F8240098
:100B200001280DD0012084F824002046FFF7D8FDCD
:100B300002004FF0000005D084F82400104670BD7C
:100B4000022070BDA16A40F20123994341F48071F3
:100B5000A1621F4D23681F49AB4218D10E6816F4DD
:100B6000702F14D0A66A46F48016A6620E68760529
:100B700005D5A66A26F4005646F48056A662A66AF3
:100B8000F6040AD5E66A26F00606E66206E0A66ADC
:100B900026F48016A6625E68E9E7E06284F8240025
:100BA0006FF00200186020688368C3F34243072B8C
:100BB00005D1A84208D1096811F4702F04D08168CA
:100BC00041F480118160B9E7816841F4A001F9E73F
:100BD000002801400424014010B590F821100022A3
:100BE000022905D00421816380F82020012010BD56
:100BF00001680B6823F00E030B6001680B6823F09B
:100C000001030B6090F84030C46B012101FA03F33B
:100C1000636080F8211080F82020104610BD00008D
:100C200010B590F821100024022903D0042181631B
:100C300001243DE001680A6822F00E020A600168A2
:100C40000A6822F001020A601A4A0168914201D141
:100C5000012121E0174A1432914201D110211BE0F9
:100C6000144A2832914201D1891515E0114A3C32CB
:100C7000914201D189140FE00E4A5032914202D1C3
:100C80004FF4803108E00B4A6432914202D14FF4B4
:100C9000801101E04FF08071064A083A516001214D
:100CA00080F82110002180F82010416B01B18847A5
:100CB000204610BD0800024070B5044600F008F957
:100CC0000546601C02D004480078044400F000F996
:100CD000401BA042FAD370BD380000202DE9F84F28
:100CE000DFF8B891002409F1040A0AF1040B234645
:100CF0000F270BF1040EC9E00125A5402A40AA42A6
:100D00007DD1674ED1F804C0ACEB0608B44532D0B3
:100D100014DCBCF1030F3AD009DCBCF1000F2AD07F
:100D2000BCF1010F1CD0BCF1020F31D11DE0BCF1B0
:100D3000110F17D0BCF1120F2AD119E0B8F5881F96
:100D400019D006DCB8F5803F15D0B8F5801F1FD14B
:100D500011E0B8F5001F0ED0B8F5041F18D10AE055
:100D6000CB6815E0CB681B1D12E0CB6808330FE0A1
:100D7000CB680C330CE08B682BB1012B4FF00803D0
:100D800003D0456104E0042302E0056100E0002394
:100D9000FF2A01D8064601E000F104064FEA840567
:100DA00001D9A5F12005D6F8008007FA05FC28EA4C
:100DB0000C0803FA05F548EA0508C6F800804D68F6
:100DC000ED0062D5374DAE6946F00106AE61AD6902
:100DD00024F0030605F001050095334D06EB050CE4
:100DE000DCF80850A607360F07FA06F825EA0805CA
:100DF000DFF8B880404503D14FF0000817E044E029
:100E0000DFF8AC80404502D14FF001080FE0DFF879
:100E1000A480404502D14FF0020808E0DFF8988036
:100E2000404502D14FF0030801E04FF0040808FAF2
:100E300006F848EA0508CCF808804D68D9F8006043
:100E4000ED034D4601D5164300E096432E604D68F4
:100E5000DAF80060AD03554601D5164300E096432D
:100E60002E604D68DBF80060ED025D4601D516434B
:100E700000E096432E604D68DEF80060AD027546D6
:100E800001D5164300E096432E60641C0D682A4687
:100E9000E5407FF431AFBDE8F88F00000004014069
:100EA0000000111000100240000001400008014045
:100EB000000C01400010014000140140806808400F
:100EC00000D0012070470AB1016170470904FBE7B7
:100ED000014880687047000038000020024881689F
:100EE000027811448160704738000020074810B52F
:100EF000016841F010010160032000F06DF80F203F
:100F000000F006F800F024F8002010BD0020024098
:100F100070B50D4D04464FF47A712878B1FBF0F0AE
:100F20000A490968B1FBF0F000F0C1FD48B9102C86
:100F300007D200222146501E00F02EF800206C60DF
:100F400070BD012070BD000038000020440000206A
:100F5000094808B5816941F001018161816901F0A9
:100F600001010091C16941F08051C161C06900F087
:100F70008050009008BD000000100240002809DBEE
:100F800000F01F02012191404009800000F1E020A3
:100F9000C0F8001170470000F0B40E4B1B680C46FF
:100FA000C3F30223C3F10705042D00D90425191D3D
:100FB000072901D2002300E0DB1E012606FA05F115
:100FC000491E214099409E40761E16403143F0BC98
:100FD00001F0B4BC0CED00E0064900F0070208681F
:100FE0004FF6FF03184040EA0220034A104308600E
:100FF000704700000CED00E00000FA0501490120F7
:101000000862704700000E4210B529A401461DCCAD
:1010100086B08DE81D002AA02A4C006804900020AC
:10102000012923D002293AD010291DD161682268F4
:10103000D20119D5C1F38342C9031DF8020009D5B5
:10104000616804AAC1F34041515C1F4AB2FBF1F14F
:10105000484301E01D4948436168490204D4400007
:101060005FF00301B0FBF1F006B010BD226AC2F3DD
:101070000121012903D1920701D5C803F4E7022910
:1010800005D1626A920702D549F64040ECE7032990
:10109000EAD121688903E7D54FF22440E4E700F064
:1010A00033F96168C1F38131491C4900DAE7000076
:1010B00002030405060708090A0B0C0D0E0F101099
:1010C000010200000010024000127A0000093D00F9
:1010D0002DE9F84305460078354CC00754D0E06947
:1010E0000026C00008D4E06940F08050E061E0696B
:1010F000012600F0805000902E480168C90512D4E6
:101100000168804641F480710160FFF7E1FE074607
:1011100005E000BFFFF7DCFEC01B642823D8D8F829
:101120000000C005F6D5206A10F4407021D0A988CF
:1011300001F4407181421CD0206A1F49012220F431
:1011400040700A6000220A602062C00711D0FFF7D9
:10115000BFFE074641F2883808E000BFFFF7B8FE3F
:10116000C11B414502D90320BDE8F883206A8007EE
:10117000F4D5206A696820F44070084320621EB1EB
:10118000E06920F08050E0612878800705D560682C
:10119000A96820F44040084360602878C00605D55F
:1011A0006068E96820F48000084360600020DBE7A5
:1011B0000010024000700040400442422DE9F04718
:1011C0000F46050061D0434E306800F00700B8427A
:1011D00009D2306820F0070038433060306800F0F2
:1011E0000700B84251D128683B4C810712D540070F
:1011F00003D5606840F4E06060602878000703D59C
:10120000606840F4605060606068A96820F0F00099
:10121000084360602878C00728D06868012810D08B
:101220002168022810D0890700292EDA616821F090
:10123000030101436160FFF74BFE804641F28839AC
:101240000DE021688903EFE78901EDE7FFF740FE34
:10125000A0EB0801494502D90320BDE8F08760688A
:10126000696800F00C00B0EB810FEFD1306800F03E
:101270000700B8420BD9306820F0070038433060CF
:10128000306800F00700B84201D00120E5E7287877
:10129000400705D56068E96820F4E06008436060B5
:1012A0002878000706D56068296920F4605040EA74
:1012B000C100606000F038F86168084AC1F30311AA
:1012C000515CC8400649086006480068FFF720FEE8
:1012D0000020C2E700200240001002401C3300083A
:1012E000440000203C00002004480549006849688B
:1012F000044AC1F30221515CC840704744000020F9
:10130000001002402C330008044805490068496871
:10131000044AC1F3C221515CC84070474400002018
:10132000001002402C33000812A185B00FC98DE8CF
:101330000F0014A0144A006804905168134801F08B
:101340000C03042B10D0082B0ED1C1F38343C90327
:101350001DF803000AD5516804AAC1F34041515C4D
:101360000A4A5043B0FBF1F005B0704708494843C2
:10137000FAE7000002030405060708090A0B0C0D32
:101380000E0F1010010200000010024000127A003F
:1013900000093D002DE9F84F040070D02078C04DC1
:1013A000C00749D06868C0F38100012807D0686889
:1013B000C0F38100022809D16868C00306D52868F7
:1013C000800339D560680028E7D035E06068B0F563
:1013D000803F0BD010B1B0F5A02F11D0286820F4B9
:1013E00080302860286820F4802002E0286840F4DB
:1013F00080302860606890B1FFF76AFD06460AE019
:10140000286840F480202860F0E700BFFFF760FD07
:10141000801B642873D828688003F7D50CE0FFF799
:1014200057FD064605E000BFFFF752FD801B64280C
:10143000F0D828688003F7D420789A4E80074FF0C0
:1014400001094FF0000839D5686810F00C0F07D07B
:101450006868C0F38100022809D16868C00306D417
:101460002868800714D52069012808D110E0206978
:10147000B0B1C6F80090FFF72BFD074605E00AE182
:10148000FFF726FDC01B0228C4D828688007F7D5BF
:101490002868616920F0F80040EAC10028600DE08A
:1014A000C6F80080FFF714FD074604E0FFF710FDC3
:1014B000C01B022823D828688007F7D420780007AB
:1014C0002CD57948A169D9B1C0F80090FFF700FD8B
:1014D000074604E0FFF7FCFCC01B02280FD8686A2F
:1014E0008007F7D571484FF4FA510068B0FBF1F06E
:1014F000009000BF0098411E0091FAD20EE080E0FB
:10150000C0F80080FFF7E4FC074604E0FFF7E0FCCA
:10151000C01B022875D8686A8007F7D42078400776
:1015200060D5E8690027C00008D4E86940F0805021
:10153000E861E869012700F0805000905C4801688C
:10154000C90513D40168834641F480710160FFF737
:10155000BFFC824606E000BFFFF7BAFCA0EB0A0022
:1015600064284ED8DBF80000C005F5D5E0680128F6
:101570000AD008B1052813D0286A20F0010028629B
:10158000286A20F0040002E0286A40F00100286286
:10159000E06841F2883B98B1FFF79AFC82460BE085
:1015A000286A40F004002862EEE700BFFFF790FCD5
:1015B000A0EB0A0159455AD8286A8007F6D50CE0F5
:1015C000FFF786FC824605E0FFF782FCA0EB0A01EC
:1015D00059454CD8286A8007F6D41FB1E86920F035
:1015E0008050E861E06988B36968C1F3810102292C
:1015F00044D00228C6F8608004D0FFF769FC044696
:1016000038E034E0FFF764FC074604E0FFF760FCD5
:10161000C01B02282BD828688001F7D4206AB0F5B7
:10162000803F05D16868A16820F4003008436860F5
:10163000D4E908010843696821F47411084368601B
:10164000C6F86090FFF744FC044606E025E000BFC2
:10165000FFF73EFC001B022809D828688001F7D557
:101660001BE000BFFFF734FC001B022802D9032057
:10167000BDE8F88F28688001F4D40EE00128F7D087
:101680006868226A00F48031914204D1616A00F4F2
:101690007010884201D00120EAE70020E8E700004E
:1016A00000100240000042428004424244000020F8
:1016B000007000407047704710B50446006801682C
:1016C000C90717D04168C90714D0406840072046B1
:1016D00007D5FFF7F0FF21686FF004004860042091
:1016E00002E0FFF7E7FF012060742068416821F005
:1016F0000101416010BDF8B505004FF0000016462D
:101700000C46009006D02CB100226946284600F015
:1017100019F808B10120F8BD287B2070E87BE07043
:10172000697B6170A97BA17056B100F0FFFDE0708C
:10173000607800F0FBFD6070A07800F0F7FDA0700D
:101740000020F8BD2DE9F04791460C465FEA0008FD
:101750004AD084B3D8F800004068400744D44046DB
:1017600000F0B5FE4FF461620546B0FBF2F1B0FB4C
:10177000F2F302FB13503C23B0FBF3F0B5FBF2F69F
:10178000607002FB1650B0FBF3F203FB1200A07076
:10179000182931D31820B1FBF0F7B1FBF0F200FBB0
:1017A00012102070404600F08BFE411C04D0A8426D
:1017B00002D9461B02E017E04FF0FF36A7EB0710F7
:1017C00000EB4000C0EB001005EBC0152946404679
:1017D00000F0CCFE40B9701C01D0711900E0314618
:1017E000404600F0AFFE10B10120BDE8F087394659
:1017F000404600F0A6FD00E02170B9F1000F0BD0CB
:10180000207800F093FD2070607800F08FFD60700C
:10181000A07800F08BFDA0700020E6E770B5040012
:1018200003D0607C002610B105E0012070BD267455
:10183000204600F043F802206074204600F01AF9B8
:10184000042578BB204600F0D3FD58BB20684168D2
:1018500021F007014160A06820B11748016821F01C
:10186000010101601448001F0168A26821F4607141
:10187000114301606068411C04D10120FFF7C4FBE3
:1018800080B1401E21688A6822F00F0242EA1042AD
:101890008A602168CA6860F30F02CA60204600F0BF
:1018A000C1FD08B16574C0E7E67301206073A073E1
:1018B0006074002070BD0000306C004008B5006806
:1018C0000D49884217D1FFF799FB0C48C16941F0D7
:1018D0000061C161C0690A4900F000600090012008
:1018E0000860002211460320FFF756FBBDE80840C0
:1018F0000320FFF743BB08BD002800400010024052
:101900003C0442422DE9F0410D4604003BD0C5B3F2
:10191000207C01283AD04FF0010884F81080022082
:101920006074E87872B300F0F8FCE073687800F057
:10193000F4FC6073A87800F0F0FCA073C2B2617B85
:10194000E07B00F0D4FD20732870204600F0BFFD3E
:101950004FF46161B0FBF1F1002518292DD918224F
:10196000B1FBF2F1A1EB011101EB4101C1EB01115E
:1019700000EBC1163146204600F0F8FD0427C8B937
:101980000BE000E004E00120BDE8F0810220FBE76D
:10199000E07368786073A878CFE7204600F090FD88
:1019A000411C0AD0B04208D206490144204600F04A
:1019B000C9FD10B167742574E5E784F811802574BA
:1019C0000020E1E7805101002DE9F0410D460400BF
:1019D00024D01DB3207C012823D04FF0010884F8C7
:1019E0001080022060742878EAB100F096FC4FF471
:1019F000616100FB01F6687800F08FFCC0EB00101D
:101A000006EB8006A87800F088FC351829462046A9
:101A100000F0ACFD0026042710BB0FE00120BDE85C
:101A2000F0810220FBE74FF4616148436978C1EB24
:101A3000011100EB8100A9784518E7E720684168AB
:101A400021F005014160204600F03AFD411C0AD01A
:101A5000A84208D206490144204600F073FD10B1A7
:101A600067742674DAE784F8118026740020D6E7BC
:101A70008051010070B504000AD02068416821F04F
:101A800008014160FFF724FA05464FF47A7608E032
:101A9000012070BDFFF71CFA401BB04201D90320A2
:101AA00070BD206840680007F4D5002070BD10B5F7
:101AB000401EB0F1807F01D3012010BD4FF0E02423
:101AC00060610F21601700F039FF0020A06107203E
:101AD0002061002010BD704770470000F8B5026813
:101AE00004461068D168536910F00F0F4FF00005DD
:101AF00053D003F0010601F4907737435FD0C2075B
:101B000005D0CA0503D5226C42F0010222644207C7
:101B100005D5DA0703D0226C42F002022264820764
:101B200005D5DA0703D0226C42F0040222640207D2
:101B300007D501F02002324303D0226C42F00802A4
:101B40002264226C002A34D0800604D5880602D58F
:101B5000204600F0CFFD20684069216CC0F3801062
:101B6000090700D430B3204600F0ACFD206841697D
:101B700049061BD5416921F040014161A06BA8B124
:101B800058494163A06BFFF74BF8002811D0A06BB8
:101B9000416B01B0BDE8F040084783060FD58B06C6
:101BA0000DD52046BDE8F84000F0A4BD2046FFF763
:101BB00093FFF8BD2046FFF78FFF2564F8BD266B25
:101BC0002023012E52D1C60650D5CE064ED5106820
:101BD00050680090506940062AD5A16B086840689B
:101BE0000004000CEAD0A68D8642E7D9E08588691A
:101BF000202818D0D06820F48070D0602068416917
:101C000021F0010141612068416921F040014161F9
:101C100084F83E3025632068C16821F01001C1605E
:101C2000A06BFEF7D9FFA08DE18D401A81B219E0BB
:101C3000A08DE18D401A81B2E08D0028BED0002930
:101C4000BCD0D06820F49070D0602068426922F047
:101C50000102426184F83E3025632068C26822F0A8
:101C60001002C2602046FFF736FFF8BD05062BD5EF
:101C70000D0629D594F83D002128F6D1A068B0F5CD
:101C8000805F01D12069B0B1206A411C21622168C6
:101C900000784860E08C401E0004000CE084E4D131
:101CA0002068C16821F08001C1602068C16841F0EE
:101CB0004001C160F8BD206A0088C0F30800506090
:101CC000206A801C2062E5E74006F3D54806F1D57E
:101CD000D168204621F04001D16084F83D3000F009
:101CE00040F9F8BDB526000870B5040004D094F89A
:101CF0003D00002510B106E0012070BD84F83C5085
:101D0000204600F023F8242084F83D002068C168B4
:101D100021F40051C160204600F048FD20680169AF
:101D200021F4904101612068416921F02A0141615B
:101D30002068C16841F40051C1602564202084F806
:101D40003D0084F83E00002070BD000070B586B0F4
:101D5000002400940194029403942E4E03682E49AB
:101D6000022003222D4DB34226D18B6943F48043D8
:101D70008B618B6903F4804304938B6943F0040304
:101D80008B618969039201F0040104910102CDE99C
:101D9000001069462846FEF7A1FF2815CDE900048A
:101DA000694628460294FEF799FF00221146252035
:101DB000FFF7F2F8252028E0194EB34227D1CB696E
:101DC00043F40033CB61CB6903F4003304938B6994
:101DD00043F004038B618969039201F004010491CB
:101DE0000421CDE9001069462846FEF777FF082058
:101DF000CDE90004694628460294FEF76FFF0022F1
:101E000011462620FFF7C8F82620FFF7B7F806B0DE
:101E100070BD000000380140001002400008014081
:101E20000044004090F83E30202B0ED159B152B101
:101E300090F83C30012B08D0012380F83C3000237F
:101E4000036300F00FBD01207047022070470000BF
:101E500010B51549154C884216D10122611C124853
:101E6000FFF7E0FF1049627864390A2A04D06088DD
:101E70000A54401C608010BD62880020114401F8A3
:101E8000010C0120207010BD074944318842FAD16D
:101E9000064905480122491C4430FFF7C3FF60781A
:101EA000BDE8104000F076BB300100203400002077
:101EB0002DE9F843044690F83D001F4616460D46AE
:101EC00020284CD1C5B1BEB194F83C00012846D0C1
:101ED000012084F83C004FF00008C4F84080212025
:101EE00084F83D00FEF7F4FFA6848146E684A068EE
:101EF000B0F5805F03D004E00120BDE8F8832069DD
:101F000028B12E465FF0000584F83C800EE00026E4
:101F1000FAE78021204600F0C0FCA0B9AEB116F867
:101F2000010B21684860E08C401EE084E08C4B4649
:101F30004FF0000200970028EBD14FF040012046FF
:101F400000F0ABFC30B10320D7E735F8020BC0F34B
:101F50000800E6E7202084F83D000020CDE70220BD
:101F6000CBE77047FEE700002DE9F04F484A8008B4
:101F70001346506294680026A41C9460D168976947
:101F8000611A5B688DB24FF0050AB8420ADA93FB1A
:101F9000FAFC0CEB4C0CAC4504DAD2F814C06045EA
:101FA00000DA50619146B84205DDD2F810C06045B4
:101FB00001DDC9F810004FF0010B4FF0000CFA2DB5
:101FC00043D9B84241DD92F80180B8F1000F3CD10D
:101FD00093FBFAF303EB4303AB4236DA82F801B02A
:101FE000D460516099F803302A4ADA4653B189F82F
:101FF00003C000234FEA010842F823805B1CDBB2D8
:10200000092BF9D999F802302BB189F802C089F867
:1020100003A0BDE8F08F02EB8308D8F8048042F8F3
:1020200023805B1C4644DBB2B6B2082BF3D9516265
:10203000314489B20A22B1FBF2F14EF66022B2FBC2
:10204000F1F1C9F8201089F800A04946B8420FDA2A
:10205000487801280CD181F801C0D1E90420121A76
:10206000CA6102EBD27200EB6200886108614861CC
:1020700040F6C4108542CCD94FF4007088610861E5
:10208000CC60486181F802B089F803C0C1E7000064
:1020900004000020600000202DE9F041194C1A4D89
:1020A0001A4F2078AE1448B901212846FEF706FFE2
:1020B00050B931463846FEF701FF28B101212846C4
:1020C000FEF7FCFEA0B11AE00F20FEF7F5FD01209F
:1020D000207001462846FEF7F1FE10B10120BDE850
:1020E000F08131463846FEF7E9FE40B90220F6E7B6
:1020F00031463846FEF7E2FE08B10020207000208D
:10210000EDE700000000002000080140000C014045
:102110003EB5002410480094019402940D49846057
:10212000016004730475012505614FF4602144606A
:10213000C161FEF799FB08B1FEF712FB0095CDE9EE
:10214000015469460448FEF70DFB002801D0FEF754
:1021500007FB3EBD0024014088000020F0B585B09B
:10216000002524480095019502950395816941F069
:1021700010018161816901F010010491816941F0D0
:1021800020018161816901F020010491816941F0A0
:1021900004018161816901F004010491816941F0C8
:1021A000080181618069144F00F0080046F22006A2
:1021B0000490012231463846FEF785FE01240220B4
:1021C0000094CDE9015069460C48FEF787FD2003D5
:1021D000CDE90005694602943846FEF77FFD0320ED
:1021E000CDE90240CDE9006469463846FEF776FD48
:1021F00005B0F0BD00100240000C01400008014095
:102200007CB500251A4C0195184800952060681E81
:10221000C4E901052046FFF701FB08B1FEF7A0FA6B
:102220008DF804508DF805508DF80650002201A954
:102230000F48FFF7C9FB08B1FEF792FA01208DF8AD
:1022400000008DF801008DF802008DF80350002287
:1022500069460748FFF756FB08B1FEF781FA206888
:10226000016841F0010101607CBD000000280040D0
:10227000B800002010B5114C0F480C2120604FF41D
:10228000E13060600020A060E060C4E90401A0616A
:10229000E0612046FFF728FD08B1FEF761FA2068EB
:1022A000C16841F02001C160BDE81040012204492D
:1022B0000248FFF7B7BD00000038014030010020A0
:1022C0003500002010B5114C0F480C2120604FF450
:1022D000165060600020A060E060C4E90401A061C5
:1022E000E0612046FFF700FD08B1FEF739FA2068EB
:1022F000C16841F02001C160BDE8104001220449DD
:102300000248FFF78FBD0000004400407401002028
:1023100035000020FEE7FEE77047010901EB81016F
:1023200000F00F0000EB4100C0B27047002102E056
:102330000A38C0B2491C0A28FAD2090740EA1160DB
:1023400070472DE9F04104460025C07B627BA37BEA
:1023500042E0012A16D0032A14D0052A12D0072AF7
:1023600010D0082A0ED00A2A0CD00C2A0AD0042A2F
:1023700010D0062A0ED0092A0CD00B2A0AD0022A25
:102380000DD028E01F2B0CD30C2A05D101221346B7
:10239000401C20E01E2B04D30123521C1BE01C2BED
:1023A00002D203F1010316E011D183B29E0710D1CE
:1023B0006426B3FBF6F706FB173636B94FF4C8763A
:1023C000B3FBF6F706FB17331BB91D2303E01D2BE8
:1023D00001D1032201236D1C8D42BAD3D1B2E07327
:1023E0006173DAB2A27300F082F82073BDE8F08165
:1023F00070B50446FEF76CFD05464FF47A7606E0AC
:10240000FEF766FD401BB04201D9032070BD206875
:1024100040688006F4D52068416841F010014160B1
:10242000002070BD70B504460068416821F01001BD
:102430004160FEF74DFD05464FF47A7607E000BF98
:10244000FEF746FD401BB04201D9032070BD206855
:1024500040688006F4D5002070BD00000EB50D4820
:10246000FFF72AF900220C490A48FFF744F9002235
:102470000A490848FFF766F90848827841780078E9
:102480008DE80700044883784278C17804A000F002
:1024900045FA0EBDB80000202F0000202C000020BF
:1024A000253034642D253032642D253032642025CA
:1024B0003032643A253032643A253032640A000002
:1024C0000168086A496A89B241EA004070470068B9
:1024D00081698AB2C1698BB2816989B28A4203D0AB
:1024E000C06961F31F40704743EA02407047F0B58E
:1024F0006424C1EBC1030927A500072603EB0113E0
:102500000329B3FBF7F100F5FA60114401440AD244
:10251000401EB0FBF4F201EB9001B0FBF5F0891A1C
:102520000844001D08E0B0FBF4F201EB9001B0FBA1
:10253000F5F0891A0844801CB0FBF6F106FB110087
:10254000C0B2F0BD70B50D4606460024FFF750FF3F
:1025500048B93168280C08623168A8B24862304630
:10256000FFF760FF00B10124204670BD70B50D4635
:1025700006460024FFF73CFF48B93168280C886103
:102580003168A8B2C8613046FFF74CFF00B10124A2
:10259000204670BD134910B5114A0B78D0545B1C0E
:1025A000D8B20870147800235A2C17D102280DD005
:1025B00003280ED9D478641D84420AD19078152856
:1025C0000CD035280AD0452808D103E050785A2885
:1025D00004D110BD487808B9012048700B7010BDB7
:1025E0004C000020010000207047FEF777BC30B59A
:1025F00093B028216846FDF7ACFD14210AA8FDF729
:10260000A8FD002401210F9411940520129400903C
:10261000CDE9024110944FF48030019002250491DD
:10262000CDE907504FF4E01009906846FEF7B2FE7E
:1026300008B172B6FEE70F20CDE90A054FF48060BD
:10264000CDE90C4002210AA80E94FEF7B7FD08B1AF
:1026500072B6FEE703200F904FF480701090C00117
:1026600011900FA8FEF734FD002801D072B6FEE7E6
:1026700013B030BD7047000038B50CA04FF6FF75A1
:10268000006800902B46012269460948FFF710FCBC
:102690006C462B4601220648611CFFF709FC2B46BD
:1026A0000122A11C0248FFF703FC38BDA545EA0042
:1026B0007401002010B5406A0021C185C184FFF774
:1026C0000BFA10BD0168CA6822F49072CA600168F2
:1026D0004A6922F001024A61016B012904D10168B3
:1026E000CA6822F01002CA60202180F83E10002142
:1026F0000163704708B590F83E10222901D00220EE
:1027000008BD82684FF480539A4201D1016921B11A
:10271000816A9A421BD04AB10AE00268816A526813
:10272000C2F308020A80816A891C08E0026972B15A
:102730000268526802F07F020A70816A491C816255
:10274000C18D491E0904090CC18503D019E0026836
:102750005268F1E70168CA6822F02002CA60016885
:10276000CA6822F48072CA6001684A6922F00102D4
:102770004A61202180F83E10016B012903D0FFF748
:1027800067FB002008BD002101630168CA6822F0D0
:102790001002CA6001680A68D20602D50A68496850
:1027A0000091818DFFF797F9EBE7000070B50446C3
:1027B00000680169E26821F4405111430161216917
:1027C000A0680843616908432168CA6841F20C6344
:1027D0009A430243CA6020684169A26921F44071AA
:1027E000114341611E492068884202D1FEF78CFDE9
:1027F00001E0FEF779FD00EBC00101EB001260681B
:1028000064218000B2FBF0F3B3FBF1F36FF0180624
:102810007343B2FBF0F5B2FBF0F605EB8305322310
:1028200003EB0515B5FBF1F5B6FBF1F605F0F00588
:1028300005EB0615B2FBF0F6B2FBF0F0B0FBF1F0E1
:102840006FF01802504306EB800003EB0010B0FB62
:10285000F1F0216800F00F002844886070BD00008E
:102860000038014081628285C285002101642222F4
:1028700080F83E2080F83C100168CA6842F48072FB
:10288000CA6001684A6942F001024A610068C16891
:1028900041F02001C160002070472DE9F0419846C9
:1028A00017460E460446069D1DE0681C1BD02DB140
:1028B000FEF70EFBA0EB0800A84214D92068C168FF
:1028C00021F4D071C1602068416921F001014161AA
:1028D000202084F83D0084F83E00002084F83C006D
:1028E0000320BDE8F0812068006836EA000004D0CB
:1028F0000020B842D9D00020F3E70120F9E700001A
:102900000148FFF7EBB80000300100200148FFF755
:10291000E5B8000074010020FEE700000FB4054B8D
:1029200010B503A9044A029800F0EAF810BC5DF85B
:1029300014FB000031320008480000200907090E8E
:10294000002804DB00F1E02080F80014704700F05C
:102950000F0000F1E02080F8141D704702E008C865
:10296000121F08C1002AFAD170477047002001E009
:1029700001C1121F002AFBD1704700002DE9FF5F43
:1029800082B00021DDE90430020DDDF840B00343E0
:1029900018D044F61050A2F2FF3242431514119899
:1029A00001281FD0A5EB0B00401C5FEA000A4FF086
:1029B00000064E4FDFF83891B046504615D5CAF1A3
:1029C000000413E0119801244AA3012801D16FEA01
:1029D0000B010298119AC0E90031C0E9024206B029
:1029E000BDE8F09FCBF10000DFE704460021404A3C
:1029F000491842EB0450CDE9001012E0E00707D07F
:102A000032463B4640464946FDF79CFC8046894697
:102A100032463B4610461946FDF794FC06460F46E3
:102A20006410002CEAD1DDE90401DDE90023BAF1EC
:102A3000000F06DAFDF786FC42464B46FDF782FCA6
:102A400005E0FDF7F1FC42464B46FDF7EDFC044680
:102A50000E460022284BFDF76FFD03D84FF0FF30E4
:102A6000014607E00022254B20463146FDF7C3FB17
:102A7000FDF749FD102409E0002C0ADB0A2200239F
:102A8000FDF788FB039B30321A55641E50EA0102A1
:102A9000F2D1641C039AC4F111031444119A012A5F
:102AA00003D0012208430DD10AE0084304D00020DE
:102AB0004FF0110B119072E7A3EB0B056D1E0DE0AB
:102AC0005B4504DD4FF0000205F1010504E003DA87
:102AD0004FF00002A5F10105002AECD002981199EF
:102AE000C0E90231C0E9004579E700000000144068
:102AF0000000F03F300000000000F0430000E03F25
:102B00002DE9FF4F95B09B468946064600250FE20A
:102B1000252877D100242746F84A0121059400E0B2
:102B2000044316F8013F203B01FA03F01042F7D1AD
:102B300030782A2811D06FF02F033078A0F13002BE
:102B4000092A16D8059A44F0020402EB820203EB2C
:102B500042021044761C0590EFE759F8042B0592C9
:102B6000002A03DA504244F40054059044F0020471
:102B7000761C30782E2816D116F8010F44F0040484
:102B80002A280DD06FF02F023078A0F13003092BE6
:102B900009D807EB870302EB4303C718761CF3E75A
:102BA00059F8047B761C30786C280FD006DC4C2852
:102BB00017D068280DD06A2814D104E0742810D0EA
:102BC0007A280FD10DE044F400140AE044F4801494
:102BD00001E044F440147278824202D104F580147A
:102BE000761C761C307866280BD013DC582877D0FA
:102BF00009DC002875D04528F6D04628F4D04728AF
:102C00001AD19DE118E0632835D0642879D0652871
:102C100012D195E1702873D008DC6728F1D06928BB
:102C20006FD06E280DD06F2806D1B5E073282CD058
:102C3000752875D0782874D05A46179990476D1C1E
:102C400075E1C4F30250022809D003280DD0D9F849
:102C5000001004280DD00D6009F1040967E1D9F8CE
:102C60000010EA17C1E90052F6E7D9F800100D800C
:102C7000F2E70D70F0E719F8041B8DF80010002042
:102C80008DF80100EA46012003E059F804AB4FF04B
:102C9000FF3061074FF0000102D40DE008F101019F
:102CA0008846B9420FDA8045F8DB1AF80810002987
:102CB000F4D108E008F1010188468142FADB1AF8F4
:102CC00008100029F6D105985B46A0EB08072146BD
:102CD0003846179A00F094FA284400EB080507E0FC
:102CE0004DE029E10DE01AF8010B5A46179990477B
:102CF000B8F10108F7D25B4621463846179A13E12E
:102D000042E00A220092C4F302524FF0000A022A63
:102D100008D059F804CB032A4FEAEC710AD00DE031
:102D200029E02AE009F1070121F00702F2E802C1D7
:102D3000914609E00FFA8CFC4FEAEC71042A03D1AA
:102D40004FFA8CFC4FEAEC71002907DA0A460021A1
:102D5000DCF1000C61EB02012D2202E0220504D51A
:102D60002B228DF80420012203E0E20701D020226B
:102D7000F7E7904659E00A2102E010220DE0102109
:102D80004FF0000A00910BE010224FF0000A44F0CF
:102D900004040827009203E008224FF0000A009282
:102DA000C4F30252022A05D059F804CB0021032AA9
:102DB00008D009E009F1070121F00702F2E802C199
:102DC000914605E01FFA8CFC042A01D10CF0FF0C9F
:102DD0004FF00008220728D5702806D0009B83F00A
:102DE000100353EA0A0305D00EE040228DF80420B8
:102DF000012208E05CEA010206D030228DF80420AE
:102E00008DF8050002229046009B83F0080353EAE8
:102E10000A030AD15CEA010201D1620705D530221A
:102E20008DF804204FF001087F1E582804D034A0EC
:102E300003900EA802900DE036A0F9E753466046D5
:102E4000009AFDF7A7F984460398825C0298401E19
:102E5000029002705CEA0100F0D1029806A9081AFB
:102E600000F1200A600702D524F4803400E0012735
:102E7000574502DDA7EB0A0000E0002000EB0A0145
:102E8000009005984144401A0590E00306D45B4643
:102E90002146179A059800F0B3F90544002706E08B
:102EA00001A85A46C05D179990476D1C7F1C474585
:102EB000F6DBE0030CD55B462146179A059800F037
:102EC0009FF9054404E030205A46179990476D1C3D
:102ED0000099481E00900029F5DC08E0029802994C
:102EE0005A460078491C0291179990476D1CBAF117
:102EF0000001AAF1010AF1DC65E1000009280100E6
:102F0000303132333435363738396162636465665F
:102F10000000000030313233343536373839414221
:102F2000434445460000000000F058F90544761C73
:102F3000307800287FF4ECAD19B02846BDE8F08F5A
:102F4000620700D4062709F1070222F0070CFCE80B
:102F50000223E14603F000485FEA080C02D00FF2BA
:102F6000702C0DE05FEA045C02D50FF2682C07E0DC
:102F70005FEAC47C02D00FF2602C01E0AFF2700C6B
:102F80004FF0FF3823F00043CDF850C065280CD037
:102F900006DC452809D046281DD047283DD13DE014
:102FA000662818D067287ED138E00021112F01DB78
:102FB000112000E0781CCDE9000106A90EA8FFF75A
:102FC000DDFCDDE90F010E9A03910021009207F16B
:102FD000010A04914DE04FF000400097CDE9011047
:102FE00006A90EA8FFF7CAFCDDE90F0203920E9BAB
:102FF00011990022DDF80CA00093049211B9791CFC
:1030000000EB010AB7EB0A0004D4C0F1FF3007F16E
:10301000010A0490AAEB0700019044E0012F00DAB6
:1030200001270021112F01DD112000E03846CDE9F4
:10303000000106A90EA8FFF7A1FCDDE90F010E9A19
:103040000391002104910092BA4621070CD4039900
:10305000514500DA8A46BAF1010F05DD009AAAF15E
:103060000101515C302908D0B84202DA10F1040F96
:1030700006DA0121CDE9011015E0AAF10101E9E725
:10308000002805DC049901440491AAEB000102E048
:10309000411C514500DD8A460499401A401C0190AC
:1030A0004FF000400290200704D40198504501DB06
:1030B000CDF8048000208DF84F0002980DF14F07E5
:1030C000B0F1004F25D02B200E9002984FF002084F
:1030D00000280CDA404202902D200E9007E00A21D1
:1030E0000298FDF741F83031029007F8011DB8F160
:1030F0000001A8F10108F2DC02980028EFD1791E46
:103100000E980870307800F0200040F0450007F875
:10311000020D12A8C01B00F107081498007800B136
:10312000012000EB0A01019801EBE0710598414490
:10313000401A401E0590E00306D45B462146179ACC
:10314000059800F05DF805441498007818B15A46C7
:10315000179990476D1CE00324D55B462146179ACA
:10316000059800F04DF805441CE00498002807DBA2
:10317000DDE90301884203DD0098405C179901E016
:10318000179930205A469047049805F10105401CD4
:1031900004900198401E019004D12E205A461799A0
:1031A00090476D1CBAF10001AAF1010ADDDC05E0CF
:1031B00017F8010B5A46179990476D1CB8F100019A
:1031C000A8F10108F4DC5B462146179A0598ABE6A6
:1031D0002D0000002B000000200000002DE9F04130
:1031E000044600251E461746880404D405E03946E7
:1031F0002020B0476D1C641EF9D52846BDE8F0813B
:103200002DE9F041044600251E469046C80301D52D
:10321000302700E02027880404D505E041463846E1
:10322000B0476D1C641EF9D52846BDE8F08100004A
:1032300013B54FF6FF73012269460248FEF738FEC8
:1032400000981CBD30010020FDF750FEFFF7CFF9BC
:10325000FEF784FFFFF70EF8FFF734F8FEF758FF8C
:10326000FEF7CEFFFFF708FA194E1A4D0024012091
:10327000FDF722FD1848FDF74FFC01211648FDF728
:10328000ADFB1548FDF7ECFA80B2FEF76DFE307825
:10329000012805D11148016811A0FFF73FFB3470E8
:1032A000FEF7FAFE012802D0022805D101E00EA0A7
:1032B00000E011A0FFF732FB28780028D7D0114991
:1032C00011A0FFF72BFB14482C700480CFE70000FF
:1032D000040000203400002088000020240000208A
:1032E00042504D3D25640A004B45595F55505F5093
:1032F0005245530D0A0000004B4559325F5052456C
:10330000530D0A00CC00002055415254315F5258F1
:103310003A25730D0A00000036000020000000006E
:103320000000000001020304060708090000000075
:103330000102030454330008000000204C00000088
:103340005C290008A03300084C0000206C05000038
:103350006C29000800000000000001005802000075
:103360000000000000000000000200000002000059
:1033700000020000640000000000000000000000E7
:10338000000000000000000000000000010000003C
:1033900010000000000000000024F4000000000005
:04000005080000ED02
:00000001FF
